{
  "contractName": "Arrays",
  "abi": [
    {
      "inputs": [],
      "payable": false,
      "stateMutability": "nonpayable",
      "type": "constructor"
    },
    {
      "constant": true,
      "inputs": [
        {
          "internalType": "uint256",
          "name": "",
          "type": "uint256"
        },
        {
          "internalType": "uint256",
          "name": "",
          "type": "uint256"
        }
      ],
      "name": "array2D",
      "outputs": [
        {
          "internalType": "uint256",
          "name": "",
          "type": "uint256"
        }
      ],
      "payable": false,
      "stateMutability": "view",
      "type": "function"
    },
    {
      "constant": true,
      "inputs": [
        {
          "internalType": "uint256",
          "name": "",
          "type": "uint256"
        }
      ],
      "name": "books",
      "outputs": [
        {
          "internalType": "string",
          "name": "title",
          "type": "string"
        },
        {
          "internalType": "string",
          "name": "author",
          "type": "string"
        }
      ],
      "payable": false,
      "stateMutability": "view",
      "type": "function"
    },
    {
      "constant": true,
      "inputs": [
        {
          "internalType": "address",
          "name": "",
          "type": "address"
        },
        {
          "internalType": "uint256",
          "name": "",
          "type": "uint256"
        }
      ],
      "name": "myBooks",
      "outputs": [
        {
          "internalType": "string",
          "name": "title",
          "type": "string"
        },
        {
          "internalType": "string",
          "name": "author",
          "type": "string"
        }
      ],
      "payable": false,
      "stateMutability": "view",
      "type": "function"
    },
    {
      "constant": true,
      "inputs": [
        {
          "internalType": "uint256",
          "name": "",
          "type": "uint256"
        }
      ],
      "name": "myStringArray",
      "outputs": [
        {
          "internalType": "string",
          "name": "",
          "type": "string"
        }
      ],
      "payable": false,
      "stateMutability": "view",
      "type": "function"
    },
    {
      "constant": true,
      "inputs": [
        {
          "internalType": "uint256",
          "name": "",
          "type": "uint256"
        }
      ],
      "name": "names",
      "outputs": [
        {
          "internalType": "string",
          "name": "",
          "type": "string"
        }
      ],
      "payable": false,
      "stateMutability": "view",
      "type": "function"
    },
    {
      "constant": true,
      "inputs": [
        {
          "internalType": "uint256",
          "name": "",
          "type": "uint256"
        }
      ],
      "name": "uintArray",
      "outputs": [
        {
          "internalType": "uint256",
          "name": "",
          "type": "uint256"
        }
      ],
      "payable": false,
      "stateMutability": "view",
      "type": "function"
    },
    {
      "constant": false,
      "inputs": [
        {
          "internalType": "string",
          "name": "_value",
          "type": "string"
        }
      ],
      "name": "addStringValue",
      "outputs": [],
      "payable": false,
      "stateMutability": "nonpayable",
      "type": "function"
    },
    {
      "constant": true,
      "inputs": [],
      "name": "getStringLength",
      "outputs": [
        {
          "internalType": "uint256",
          "name": "",
          "type": "uint256"
        }
      ],
      "payable": false,
      "stateMutability": "view",
      "type": "function"
    },
    {
      "constant": false,
      "inputs": [
        {
          "internalType": "uint256",
          "name": "_id",
          "type": "uint256"
        },
        {
          "internalType": "string",
          "name": "_title",
          "type": "string"
        },
        {
          "internalType": "string",
          "name": "_author",
          "type": "string"
        }
      ],
      "name": "addBook",
      "outputs": [],
      "payable": false,
      "stateMutability": "nonpayable",
      "type": "function"
    },
    {
      "constant": false,
      "inputs": [
        {
          "internalType": "uint256",
          "name": "_id",
          "type": "uint256"
        },
        {
          "internalType": "string",
          "name": "_title",
          "type": "string"
        },
        {
          "internalType": "string",
          "name": "_author",
          "type": "string"
        }
      ],
      "name": "addMyBook",
      "outputs": [],
      "payable": false,
      "stateMutability": "nonpayable",
      "type": "function"
    }
  ],
  "bytecode": "0x60806040526040518060600160405280600160ff168152602001600260ff168152602001600360ff1681525060009060036200003d92919062000186565b5060405180604001604052806040518060600160405280600160ff168152602001600260ff168152602001600360ff1681525081526020016040518060600160405280600360ff168152602001600460ff168152602001600460ff168152508152506002906002620000b1929190620001dd565b50348015620000bf57600080fd5b506040518060400160405280600481526020017f616e696c00000000000000000000000000000000000000000000000000000000815250600360006001815260200190815260200160002090805190602001906200011f9291906200023f565b506040518060400160405280600681526020017f6e696b68696c0000000000000000000000000000000000000000000000000000815250600360006002815260200190815260200160002090805190602001906200017f9291906200023f565b5062000399565b828054828255906000526020600020908101928215620001ca579160200282015b82811115620001c9578251829060ff16905591602001919060010190620001a7565b5b509050620001d99190620002c6565b5090565b8280548282559060005260206000209081019282156200022c579160200282015b828111156200022b578251829060036200021a929190620002ee565b5091602001919060010190620001fe565b5b5090506200023b919062000345565b5090565b828054600181600116156101000203166002900490600052602060002090601f016020900481019282601f106200028257805160ff1916838001178555620002b3565b82800160010185558215620002b3579182015b82811115620002b257825182559160200191906001019062000295565b5b509050620002c29190620002c6565b5090565b620002eb91905b80821115620002e7576000816000905550600101620002cd565b5090565b90565b82805482825590600052602060002090810192821562000332579160200282015b8281111562000331578251829060ff169055916020019190600101906200030f565b5b509050620003419190620002c6565b5090565b6200037391905b808211156200036f576000818162000365919062000376565b506001016200034c565b5090565b90565b5080546000825590600052602060002090810190620003969190620002c6565b50565b610f8680620003a96000396000f3fe608060405234801561001057600080fd5b506004361061009e5760003560e01c80639ae918c7116100665780639ae918c714610648578063aa3546d91461068a578063aef0b47f14610731578063d1cfd048146107ec578063d3268fc11461080a5761009e565b8063028414f2146100a357806327d3553f146101ff5780634622ab0314610332578063493ec707146103d95780636874404614610535575b600080fd5b6101fd600480360360608110156100b957600080fd5b8101908080359060200190929190803590602001906401000000008111156100e057600080fd5b8201836020820111156100f257600080fd5b8035906020019184600183028401116401000000008311171561011457600080fd5b91908080601f016020809104026020016040519081016040528093929190818152602001838380828437600081840152601f19601f8201169050808301925050505050505091929192908035906020019064010000000081111561017757600080fd5b82018360208201111561018957600080fd5b803590602001918460018302840111640100000000831117156101ab57600080fd5b91908080601f016020809104026020016040519081016040528093929190818152602001838380828437600081840152601f19601f820116905080830192505050505050509192919290505050610856565b005b61024b6004803603604081101561021557600080fd5b81019080803573ffffffffffffffffffffffffffffffffffffffff169060200190929190803590602001909291905050506108c0565b604051808060200180602001838103835285818151815260200191508051906020019080838360005b8381101561028f578082015181840152602081019050610274565b50505050905090810190601f1680156102bc5780820380516001836020036101000a031916815260200191505b50838103825284818151815260200191508051906020019080838360005b838110156102f55780820151818401526020810190506102da565b50505050905090810190601f1680156103225780820380516001836020036101000a031916815260200191505b5094505050505060405180910390f35b61035e6004803603602081101561034857600080fd5b8101908080359060200190929190505050610a21565b6040518080602001828103825283818151815260200191508051906020019080838360005b8381101561039e578082015181840152602081019050610383565b50505050905090810190601f1680156103cb5780820380516001836020036101000a031916815260200191505b509250505060405180910390f35b610533600480360360608110156103ef57600080fd5b81019080803590602001909291908035906020019064010000000081111561041657600080fd5b82018360208201111561042857600080fd5b8035906020019184600183028401116401000000008311171561044a57600080fd5b91908080601f016020809104026020016040519081016040528093929190818152602001838380828437600081840152601f19601f820116905080830192505050505050509192919290803590602001906401000000008111156104ad57600080fd5b8201836020820111156104bf57600080fd5b803590602001918460018302840111640100000000831117156104e157600080fd5b91908080601f016020809104026020016040519081016040528093929190818152602001838380828437600081840152601f19601f820116905080830192505050505050509192919290505050610ad1565b005b6105616004803603602081101561054b57600080fd5b8101908080359060200190929190505050610b78565b604051808060200180602001838103835285818151815260200191508051906020019080838360005b838110156105a557808201518184015260208101905061058a565b50505050905090810190601f1680156105d25780820380516001836020036101000a031916815260200191505b50838103825284818151815260200191508051906020019080838360005b8381101561060b5780820151818401526020810190506105f0565b50505050905090810190601f1680156106385780820380516001836020036101000a031916815260200191505b5094505050505060405180910390f35b6106746004803603602081101561065e57600080fd5b8101908080359060200190929190505050610ccc565b6040518082815260200191505060405180910390f35b6106b6600480360360208110156106a057600080fd5b8101908080359060200190929190505050610ced565b6040518080602001828103825283818151815260200191508051906020019080838360005b838110156106f65780820151818401526020810190506106db565b50505050905090810190601f1680156107235780820380516001836020036101000a031916815260200191505b509250505060405180910390f35b6107ea6004803603602081101561074757600080fd5b810190808035906020019064010000000081111561076457600080fd5b82018360208201111561077657600080fd5b8035906020019184600183028401116401000000008311171561079857600080fd5b91908080601f016020809104026020016040519081016040528093929190818152602001838380828437600081840152601f19601f820116905080830192505050505050509192919290505050610da6565b005b6107f4610de8565b6040518082815260200191505060405180910390f35b6108406004803603604081101561082057600080fd5b810190808035906020019092919080359060200190929190505050610df5565b6040518082815260200191505060405180910390f35b60405180604001604052808381526020018281525060046000858152602001908152602001600020600082015181600001908051906020019061089a929190610e2c565b5060208201518160010190805190602001906108b7929190610e2c565b50905050505050565b600560205281600052604060002060205280600052604060002060009150915050806000018054600181600116156101000203166002900480601f0160208091040260200160405190810160405280929190818152602001828054600181600116156101000203166002900480156109795780601f1061094e57610100808354040283529160200191610979565b820191906000526020600020905b81548152906001019060200180831161095c57829003601f168201915b505050505090806001018054600181600116156101000203166002900480601f016020809104026020016040519081016040528092919081815260200182805460018160011615610100020316600290048015610a175780601f106109ec57610100808354040283529160200191610a17565b820191906000526020600020905b8154815290600101906020018083116109fa57829003601f168201915b5050505050905082565b60036020528060005260406000206000915090508054600181600116156101000203166002900480601f016020809104026020016040519081016040528092919081815260200182805460018160011615610100020316600290048015610ac95780601f10610a9e57610100808354040283529160200191610ac9565b820191906000526020600020905b815481529060010190602001808311610aac57829003601f168201915b505050505081565b604051806040016040528083815260200182815250600560003373ffffffffffffffffffffffffffffffffffffffff1673ffffffffffffffffffffffffffffffffffffffff16815260200190815260200160002060008581526020019081526020016000206000820151816000019080519060200190610b52929190610e2c565b506020820151816001019080519060200190610b6f929190610e2c565b50905050505050565b6004602052806000526040600020600091509050806000018054600181600116156101000203166002900480601f016020809104026020016040519081016040528092919081815260200182805460018160011615610100020316600290048015610c245780601f10610bf957610100808354040283529160200191610c24565b820191906000526020600020905b815481529060010190602001808311610c0757829003601f168201915b505050505090806001018054600181600116156101000203166002900480601f016020809104026020016040519081016040528092919081815260200182805460018160011615610100020316600290048015610cc25780601f10610c9757610100808354040283529160200191610cc2565b820191906000526020600020905b815481529060010190602001808311610ca557829003601f168201915b5050505050905082565b60008181548110610cd957fe5b906000526020600020016000915090505481565b60018181548110610cfa57fe5b906000526020600020016000915090508054600181600116156101000203166002900480601f016020809104026020016040519081016040528092919081815260200182805460018160011615610100020316600290048015610d9e5780601f10610d7357610100808354040283529160200191610d9e565b820191906000526020600020905b815481529060010190602001808311610d8157829003601f168201915b505050505081565b6001819080600181540180825580915050906001820390600052602060002001600090919290919091509080519060200190610de3929190610eac565b505050565b6000600180549050905090565b60028281548110610e0257fe5b906000526020600020018181548110610e1757fe5b90600052602060002001600091509150505481565b828054600181600116156101000203166002900490600052602060002090601f016020900481019282601f10610e6d57805160ff1916838001178555610e9b565b82800160010185558215610e9b579182015b82811115610e9a578251825591602001919060010190610e7f565b5b509050610ea89190610f2c565b5090565b828054600181600116156101000203166002900490600052602060002090601f016020900481019282601f10610eed57805160ff1916838001178555610f1b565b82800160010185558215610f1b579182015b82811115610f1a578251825591602001919060010190610eff565b5b509050610f289190610f2c565b5090565b610f4e91905b80821115610f4a576000816000905550600101610f32565b5090565b9056fea265627a7a72315820fa11d5cf0f7bcafc7a988ff39f4739883ee5c553b17fd96c7defabed837ecf5064736f6c63430005100032",
  "source": "pragma solidity >=0.4.21 <0.7.0;\n\ncontract Arrays {\n    // Array\n    uint256[] public uintArray = [1, 2, 3];\n    string[] public myStringArray;\n    uint256[][] public array2D = [[1, 2, 3], [3, 4, 4]];\n\n    function addStringValue(string memory _value) public {\n        myStringArray.push(_value);\n    }\n\n    function getStringLength() public view returns (uint256) {\n        return myStringArray.length;\n    }\n\n    // Mapping\n    mapping(uint256 => string) public names;\n    mapping(uint256 => Book) public books;\n    mapping(address => mapping(uint256 => Book)) public myBooks;\n\n    struct Book {\n        string title;\n        string author;\n    }\n\n    constructor() public {\n        names[1] = \"anil\";\n        names[2] = \"nikhil\";\n    }\n\n    function addBook(\n        uint256 _id,\n        string memory _title,\n        string memory _author\n    ) public {\n        books[_id] = Book(_title, _author);\n    }\n\n    function addMyBook(\n        uint256 _id,\n        string memory _title,\n        string memory _author\n    ) public {\n        // Imp: nested mapping\n        myBooks[msg.sender][_id] = Book(_title, _author);\n    }\n}\n",
  "sourcePath": "/Users/anilrajthota/Documents/GitHub/Learn-Solidity/contracts/Arrays.sol",
  "compiler": {
    "name": "solc",
    "version": "0.5.16+commit.9c3226ce.Emscripten.clang"
  },
  "schemaVersion": "3.4.4",
  "updatedAt": "2022-02-06T20:47:37.337Z",
  "networkType": "ethereum",
  "devdoc": {
    "methods": {}
  },
  "userdoc": {
    "methods": {}
  }
}