{
  "contractName": "Arrays",
  "abi": [
    {
      "constant": true,
      "inputs": [
        {
          "internalType": "uint256",
          "name": "",
          "type": "uint256"
        },
        {
          "internalType": "uint256",
          "name": "",
          "type": "uint256"
        }
      ],
      "name": "array2D",
      "outputs": [
        {
          "internalType": "uint256",
          "name": "",
          "type": "uint256"
        }
      ],
      "payable": false,
      "stateMutability": "view",
      "type": "function"
    },
    {
      "constant": true,
      "inputs": [
        {
          "internalType": "uint256",
          "name": "",
          "type": "uint256"
        }
      ],
      "name": "myStringArray",
      "outputs": [
        {
          "internalType": "string",
          "name": "",
          "type": "string"
        }
      ],
      "payable": false,
      "stateMutability": "view",
      "type": "function"
    },
    {
      "constant": true,
      "inputs": [
        {
          "internalType": "uint256",
          "name": "",
          "type": "uint256"
        }
      ],
      "name": "uintArray",
      "outputs": [
        {
          "internalType": "uint256",
          "name": "",
          "type": "uint256"
        }
      ],
      "payable": false,
      "stateMutability": "view",
      "type": "function"
    },
    {
      "constant": false,
      "inputs": [
        {
          "internalType": "string",
          "name": "_value",
          "type": "string"
        }
      ],
      "name": "addStringValue",
      "outputs": [],
      "payable": false,
      "stateMutability": "nonpayable",
      "type": "function"
    },
    {
      "constant": true,
      "inputs": [],
      "name": "getStringLength",
      "outputs": [
        {
          "internalType": "uint256",
          "name": "",
          "type": "uint256"
        }
      ],
      "payable": false,
      "stateMutability": "view",
      "type": "function"
    }
  ],
  "bytecode": "0x60806040526040518060600160405280600160ff168152602001600260ff168152602001600360ff16815250600090600361003b9291906100c0565b5060405180604001604052806040518060600160405280600160ff168152602001600260ff168152602001600360ff1681525081526020016040518060600160405280600360ff168152602001600460ff168152602001600460ff1681525081525060029060026100ad929190610112565b503480156100ba57600080fd5b50610231565b828054828255906000526020600020908101928215610101579160200282015b82811115610100578251829060ff169055916020019190600101906100e0565b5b50905061010e919061016d565b5090565b82805482825590600052602060002090810192821561015c579160200282015b8281111561015b5782518290600361014b929190610192565b5091602001919060010190610132565b5b50905061016991906101e4565b5090565b61018f91905b8082111561018b576000816000905550600101610173565b5090565b90565b8280548282559060005260206000209081019282156101d3579160200282015b828111156101d2578251829060ff169055916020019190600101906101b2565b5b5090506101e0919061016d565b5090565b61020d91905b8082111561020957600081816102009190610210565b506001016101ea565b5090565b90565b508054600082559060005260206000209081019061022e919061016d565b50565b6104a4806102406000396000f3fe608060405234801561001057600080fd5b50600436106100575760003560e01c80639ae918c71461005c578063aa3546d91461009e578063aef0b47f14610145578063d1cfd04814610200578063d3268fc11461021e575b600080fd5b6100886004803603602081101561007257600080fd5b810190808035906020019092919050505061026a565b6040518082815260200191505060405180910390f35b6100ca600480360360208110156100b457600080fd5b810190808035906020019092919050505061028b565b6040518080602001828103825283818151815260200191508051906020019080838360005b8381101561010a5780820151818401526020810190506100ef565b50505050905090810190601f1680156101375780820380516001836020036101000a031916815260200191505b509250505060405180910390f35b6101fe6004803603602081101561015b57600080fd5b810190808035906020019064010000000081111561017857600080fd5b82018360208201111561018a57600080fd5b803590602001918460018302840111640100000000831117156101ac57600080fd5b91908080601f016020809104026020016040519081016040528093929190818152602001838380828437600081840152601f19601f820116905080830192505050505050509192919290505050610344565b005b610208610386565b6040518082815260200191505060405180910390f35b6102546004803603604081101561023457600080fd5b810190808035906020019092919080359060200190929190505050610393565b6040518082815260200191505060405180910390f35b6000818154811061027757fe5b906000526020600020016000915090505481565b6001818154811061029857fe5b906000526020600020016000915090508054600181600116156101000203166002900480601f01602080910402602001604051908101604052809291908181526020018280546001816001161561010002031660029004801561033c5780601f106103115761010080835404028352916020019161033c565b820191906000526020600020905b81548152906001019060200180831161031f57829003601f168201915b505050505081565b60018190806001815401808255809150509060018203906000526020600020016000909192909190915090805190602001906103819291906103ca565b505050565b6000600180549050905090565b600282815481106103a057fe5b9060005260206000200181815481106103b557fe5b90600052602060002001600091509150505481565b828054600181600116156101000203166002900490600052602060002090601f016020900481019282601f1061040b57805160ff1916838001178555610439565b82800160010185558215610439579182015b8281111561043857825182559160200191906001019061041d565b5b509050610446919061044a565b5090565b61046c91905b80821115610468576000816000905550600101610450565b5090565b9056fea265627a7a7231582090c51835b1f8817385dcc719cc1316da97c3d1e9a0c8125c88823306d3eed1c064736f6c63430005100032",
  "source": "pragma solidity >=0.4.21 <0.7.0;\n\ncontract Arrays {\n    // Array\n    uint256[] public uintArray = [1, 2, 3];\n    string[] public myStringArray;\n    uint256[][] public array2D = [[1, 2, 3], [3, 4, 4]];\n\n    function addStringValue(string memory _value) public {\n        myStringArray.push(_value);\n    }\n\n    function getStringLength() public view returns (uint256) {\n        return myStringArray.length;\n    }\n    // Mapping\n}\n",
  "sourcePath": "/Users/anilrajthota/Documents/GitHub/Learn-Solidity/contracts/Arrays.sol",
  "compiler": {
    "name": "solc",
    "version": "0.5.16+commit.9c3226ce.Emscripten.clang"
  },
  "schemaVersion": "3.4.4",
  "updatedAt": "2022-02-03T21:02:58.386Z",
  "networkType": "ethereum",
  "devdoc": {
    "methods": {}
  },
  "userdoc": {
    "methods": {}
  }
}