{
  "contractName": "Conditions",
  "abi": [
    {
      "inputs": [],
      "payable": false,
      "stateMutability": "nonpayable",
      "type": "constructor"
    },
    {
      "constant": true,
      "inputs": [
        {
          "internalType": "uint256",
          "name": "",
          "type": "uint256"
        }
      ],
      "name": "arr",
      "outputs": [
        {
          "internalType": "uint256",
          "name": "",
          "type": "uint256"
        }
      ],
      "payable": false,
      "stateMutability": "view",
      "type": "function"
    },
    {
      "constant": true,
      "inputs": [],
      "name": "owner",
      "outputs": [
        {
          "internalType": "address",
          "name": "",
          "type": "address"
        }
      ],
      "payable": false,
      "stateMutability": "view",
      "type": "function"
    },
    {
      "constant": true,
      "inputs": [
        {
          "internalType": "uint256",
          "name": "_num",
          "type": "uint256"
        }
      ],
      "name": "isEven",
      "outputs": [
        {
          "internalType": "bool",
          "name": "",
          "type": "bool"
        }
      ],
      "payable": false,
      "stateMutability": "view",
      "type": "function"
    },
    {
      "constant": true,
      "inputs": [],
      "name": "countEven",
      "outputs": [
        {
          "internalType": "uint256",
          "name": "",
          "type": "uint256"
        }
      ],
      "payable": false,
      "stateMutability": "view",
      "type": "function"
    },
    {
      "constant": true,
      "inputs": [],
      "name": "isOwner",
      "outputs": [
        {
          "internalType": "bool",
          "name": "",
          "type": "bool"
        }
      ],
      "payable": false,
      "stateMutability": "view",
      "type": "function"
    }
  ],
  "bytecode": "0x6080604052604051806101400160405280600160ff168152602001600260ff168152602001600360ff168152602001600460ff168152602001600560ff168152602001600660ff168152602001600760ff168152602001600860ff168152602001600960ff168152602001600a60ff16815250600090600a6100829291906100d6565b5034801561008f57600080fd5b5033600160006101000a81548173ffffffffffffffffffffffffffffffffffffffff021916908373ffffffffffffffffffffffffffffffffffffffff16021790555061014d565b828054828255906000526020600020908101928215610117579160200282015b82811115610116578251829060ff169055916020019190600101906100f6565b5b5090506101249190610128565b5090565b61014a91905b8082111561014657600081600090555060010161012e565b5090565b90565b6102c68061015c6000396000f3fe608060405234801561001057600080fd5b50600436106100575760003560e01c80632835b8481461005c5780632a2e13201461007a57806371e5ee5f146100c05780638da5cb5b146101025780638f32d59b1461014c575b600080fd5b61006461016e565b6040518082815260200191505060405180910390f35b6100a66004803603602081101561009057600080fd5b81019080803590602001909291905050506101cb565b604051808215151515815260200191505060405180910390f35b6100ec600480360360208110156100d657600080fd5b81019080803590602001909291905050506101f2565b6040518082815260200191505060405180910390f35b61010a610213565b604051808273ffffffffffffffffffffffffffffffffffffffff1673ffffffffffffffffffffffffffffffffffffffff16815260200191505060405180910390f35b610154610239565b604051808215151515815260200191505060405180910390f35b6000806000905060008090505b6000805490508110156101c3576101a86000828154811061019857fe5b90600052602060002001546101cb565b156101b65781806001019250505b808060010191505061017b565b508091505090565b600080600283816101d857fe5b0614156101e857600190506101ed565b600090505b919050565b600081815481106101ff57fe5b906000526020600020016000915090505481565b600160009054906101000a900473ffffffffffffffffffffffffffffffffffffffff1681565b6000600160009054906101000a900473ffffffffffffffffffffffffffffffffffffffff1673ffffffffffffffffffffffffffffffffffffffff163373ffffffffffffffffffffffffffffffffffffffff161490509056fea265627a7a72315820309420778b304ddbb613938ebb937d2172fdc403949ef514f727c2c8c13e491364736f6c63430005100032",
  "source": "pragma solidity >=0.4.21 <0.7.0;\n\ncontract Conditions {\n    uint256[] public arr = [1, 2, 3, 4, 5, 6, 7, 8, 9, 10];\n    address public owner;\n\n    constructor() public {\n        owner = msg.sender;\n    }\n\n    function isEven(uint256 _num) public view returns (bool) {\n        if (_num % 2 == 0) return true;\n        else return false;\n    }\n\n    function countEven() public view returns (uint256) {\n        uint256 count = 0;\n        for (uint256 i = 0; i < arr.length; i++) {\n            if (isEven(arr[i])) count++;\n        }\n        return count;\n    }\n\n    function isOwner() public view returns (bool) {\n        return (msg.sender == owner);\n    }\n}\n",
  "sourcePath": "/Users/anilrajthota/Documents/GitHub/Learn-Solidity/contracts/Conditions.sol",
  "compiler": {
    "name": "solc",
    "version": "0.5.16+commit.9c3226ce.Emscripten.clang"
  },
  "schemaVersion": "3.4.4",
  "updatedAt": "2022-02-05T16:14:34.083Z",
  "networkType": "ethereum",
  "devdoc": {
    "methods": {}
  },
  "userdoc": {
    "methods": {}
  }
}