{
  "contractName": "Counter",
  "abi": [
    {
      "constant": true,
      "inputs": [],
      "name": "getCount",
      "outputs": [
        {
          "internalType": "uint256",
          "name": "",
          "type": "uint256"
        }
      ],
      "payable": false,
      "stateMutability": "view",
      "type": "function"
    },
    {
      "constant": false,
      "inputs": [],
      "name": "incrementCount",
      "outputs": [],
      "payable": false,
      "stateMutability": "nonpayable",
      "type": "function"
    }
  ],
  "bytecode": "0x6080604052600c600055348015601457600080fd5b5060a7806100236000396000f3fe6080604052348015600f57600080fd5b506004361060325760003560e01c8063a87d942c146037578063e5071b8e146053575b600080fd5b603d605b565b6040518082815260200191505060405180910390f35b60596064565b005b60008054905090565b600a6000540160008190555056fea265627a7a723158207da81da60475aeb6807b7ee3dadcdce105b13d51c6c280273fae415b9f0d044164736f6c63430005100032",
  "source": "// pragma solidity >=0.7.0 <0.9.0;\npragma solidity >=0.4.21 <0.7.0;\n\ncontract Counter {\n    uint256 count = 12;\n\n    function getCount() public view returns (uint256) {\n        return count;\n    }\n\n    function incrementCount() public {\n        count = count + 10;\n    }\n}\n\n// code with constructor\n// uint256 count;\n// constructor() public {\n//     count = 0;\n// }\n",
  "sourcePath": "/Users/anilrajthota/Documents/GitHub/Learn-Solidity/contracts/Counter.sol",
  "compiler": {
    "name": "solc",
    "version": "0.5.16+commit.9c3226ce.Emscripten.clang"
  },
  "schemaVersion": "3.4.4",
  "updatedAt": "2022-02-03T21:02:50.483Z",
  "networkType": "ethereum",
  "devdoc": {
    "methods": {}
  },
  "userdoc": {
    "methods": {}
  }
}