{
  "contractName": "HotelRoom",
  "abi": [
    {
      "inputs": [],
      "payable": false,
      "stateMutability": "nonpayable",
      "type": "constructor"
    },
    {
      "anonymous": false,
      "inputs": [
        {
          "indexed": false,
          "internalType": "address",
          "name": "_occupant",
          "type": "address"
        },
        {
          "indexed": false,
          "internalType": "uint256",
          "name": "_val",
          "type": "uint256"
        }
      ],
      "name": "Occupy",
      "type": "event"
    },
    {
      "constant": true,
      "inputs": [],
      "name": "owner",
      "outputs": [
        {
          "internalType": "address payable",
          "name": "",
          "type": "address"
        }
      ],
      "payable": false,
      "stateMutability": "view",
      "type": "function"
    },
    {
      "constant": false,
      "inputs": [],
      "name": "receive",
      "outputs": [],
      "payable": true,
      "stateMutability": "payable",
      "type": "function"
    }
  ],
  "bytecode": "0x608060405234801561001057600080fd5b5033600060016101000a81548173ffffffffffffffffffffffffffffffffffffffff021916908373ffffffffffffffffffffffffffffffffffffffff16021790555060008060006101000a81548160ff0219169083600181111561007057fe5b02179055506102fd806100846000396000f3fe6080604052600436106100295760003560e01c80638da5cb5b1461002e578063a3e76c0f14610085575b600080fd5b34801561003a57600080fd5b5061004361008f565b604051808273ffffffffffffffffffffffffffffffffffffffff1673ffffffffffffffffffffffffffffffffffffffff16815260200191505060405180910390f35b61008d6100b5565b005b600060019054906101000a900473ffffffffffffffffffffffffffffffffffffffff1681565b600060018111156100c257fe5b6000809054906101000a900460ff1660018111156100dc57fe5b1461014f576040517f08c379a00000000000000000000000000000000000000000000000000000000081526004018080602001828103825260108152602001807f526f6f6d206973206f636375706965640000000000000000000000000000000081525060200191505060405180910390fd5b671bc16d674ec80000803410156101ce576040517f08c379a00000000000000000000000000000000000000000000000000000000081526004018080602001828103825260148152602001807f46756e6473206e6f742073756666696369656e7400000000000000000000000081525060200191505060405180910390fd5b60016000806101000a81548160ff021916908360018111156101ec57fe5b0217905550600060019054906101000a900473ffffffffffffffffffffffffffffffffffffffff1673ffffffffffffffffffffffffffffffffffffffff166108fc349081150290604051600060405180830381858888f19350505050158015610259573d6000803e3d6000fd5b507fba951166d42eb077151bdecb7cf6027562f04f0143b0c141b1bb0a33eef5d6933334604051808373ffffffffffffffffffffffffffffffffffffffff1673ffffffffffffffffffffffffffffffffffffffff1681526020018281526020019250505060405180910390a15056fea265627a7a72315820a5c0b626f9d3d4de16ce48b77a0b8a2ed97574cfb98e2751e1e5b065e3fe72b864736f6c63430005100032",
  "source": "pragma solidity >=0.4.21 <0.7.0;\n\ncontract HotelRoom {\n    enum Status {\n        vacant,\n        occupied\n    }\n    Status cs;\n\n    event Occupy(address _occupant, uint256 _val);\n    address payable public owner;\n\n    constructor() public {\n        owner = msg.sender;\n        cs = Status.vacant;\n    }\n\n    modifier onlyWhileVacant() {\n        require(cs == Status.vacant, \"Room is occupied\");\n        _;\n    }\n\n    modifier costs(uint256 _amt) {\n        require(msg.value >= _amt, \"Funds not sufficient\");\n        _;\n    }\n\n    function receive() external payable onlyWhileVacant costs(2 ether) {\n        cs = Status.occupied;\n        owner.transfer(msg.value);\n        emit Occupy(msg.sender, msg.value);\n    }\n}\n",
  "sourcePath": "/Users/anilrajthota/Documents/GitHub/Learn-Solidity/contracts/HotelRoom.sol",
  "compiler": {
    "name": "solc",
    "version": "0.5.16+commit.9c3226ce.Emscripten.clang"
  },
  "schemaVersion": "3.4.4",
  "updatedAt": "2022-02-09T06:08:31.075Z",
  "networkType": "ethereum",
  "devdoc": {
    "methods": {}
  },
  "userdoc": {
    "methods": {}
  }
}