{
  "contractName": "MyContractVariables",
  "abi": [
    {
      "constant": true,
      "inputs": [],
      "name": "myBytes32",
      "outputs": [
        {
          "internalType": "bytes32",
          "name": "",
          "type": "bytes32"
        }
      ],
      "payable": false,
      "stateMutability": "view",
      "type": "function"
    },
    {
      "constant": true,
      "inputs": [],
      "name": "myString",
      "outputs": [
        {
          "internalType": "string",
          "name": "",
          "type": "string"
        }
      ],
      "payable": false,
      "stateMutability": "view",
      "type": "function"
    },
    {
      "constant": true,
      "inputs": [],
      "name": "myStruct",
      "outputs": [
        {
          "internalType": "uint256",
          "name": "myInt",
          "type": "uint256"
        },
        {
          "internalType": "string",
          "name": "myString",
          "type": "string"
        }
      ],
      "payable": false,
      "stateMutability": "view",
      "type": "function"
    },
    {
      "constant": true,
      "inputs": [],
      "name": "myaddr",
      "outputs": [
        {
          "internalType": "address",
          "name": "",
          "type": "address"
        }
      ],
      "payable": false,
      "stateMutability": "view",
      "type": "function"
    },
    {
      "constant": true,
      "inputs": [],
      "name": "myint",
      "outputs": [
        {
          "internalType": "int256",
          "name": "",
          "type": "int256"
        }
      ],
      "payable": false,
      "stateMutability": "view",
      "type": "function"
    },
    {
      "constant": true,
      "inputs": [],
      "name": "testState",
      "outputs": [
        {
          "internalType": "uint256",
          "name": "",
          "type": "uint256"
        }
      ],
      "payable": false,
      "stateMutability": "view",
      "type": "function"
    },
    {
      "constant": true,
      "inputs": [],
      "name": "getValue",
      "outputs": [
        {
          "internalType": "uint256",
          "name": "",
          "type": "uint256"
        }
      ],
      "payable": false,
      "stateMutability": "pure",
      "type": "function"
    }
  ],
  "bytecode": "0x6080604052600160005560018060006101000a81548160ff021916908360ff16021790555060016002556040518060400160405280600581526020017f48454c4c4f00000000000000000000000000000000000000000000000000000081525060039080519060200190610074929190610176565b507f48656c6c6f000000000000000000000000000000000000000000000000000000600455732e7f715c21440e72013df858c7e3ce3ccc69c64b600560006101000a81548173ffffffffffffffffffffffffffffffffffffffff021916908373ffffffffffffffffffffffffffffffffffffffff1602179055506040518060400160405280600181526020016040518060400160405280600a81526020017f48656c6c6f576f726c640000000000000000000000000000000000000000000081525081525060066000820151816000015560208201518160010190805190602001906101619291906101f6565b50505034801561017057600080fd5b5061029b565b828054600181600116156101000203166002900490600052602060002090601f016020900481019282601f106101b757805160ff19168380011785556101e5565b828001600101855582156101e5579182015b828111156101e45782518255916020019190600101906101c9565b5b5090506101f29190610276565b5090565b828054600181600116156101000203166002900490600052602060002090601f016020900481019282601f1061023757805160ff1916838001178555610265565b82800160010185558215610265579182015b82811115610264578251825591602001919060010190610249565b5b5090506102729190610276565b5090565b61029891905b8082111561029457600081600090555060010161027c565b5090565b90565b610414806102aa6000396000f3fe608060405234801561001057600080fd5b506004361061007d5760003560e01c8063579506971161005b57806357950697146101415780638bc9fe6c1461015f578063a59cb107146101e9578063f0759a4d146102075761007d565b80632096525514610082578063492bfa18146100a05780634b3e7e0c14610123575b600080fd5b61008a610251565b6040518082815260200191505060405180910390f35b6100a861025f565b6040518080602001828103825283818151815260200191508051906020019080838360005b838110156100e85780820151818401526020810190506100cd565b50505050905090810190601f1680156101155780820380516001836020036101000a031916815260200191505b509250505060405180910390f35b61012b6102fd565b6040518082815260200191505060405180910390f35b610149610303565b6040518082815260200191505060405180910390f35b610167610309565b6040518083815260200180602001828103825283818151815260200191508051906020019080838360005b838110156101ad578082015181840152602081019050610192565b50505050905090810190601f1680156101da5780820380516001836020036101000a031916815260200191505b50935050505060405180910390f35b6101f16103b3565b6040518082815260200191505060405180910390f35b61020f6103b9565b604051808273ffffffffffffffffffffffffffffffffffffffff1673ffffffffffffffffffffffffffffffffffffffff16815260200191505060405180910390f35b600080600190508091505090565b60038054600181600116156101000203166002900480601f0160208091040260200160405190810160405280929190818152602001828054600181600116156101000203166002900480156102f55780601f106102ca576101008083540402835291602001916102f5565b820191906000526020600020905b8154815290600101906020018083116102d857829003601f168201915b505050505081565b60045481565b60005481565b6006806000015490806001018054600181600116156101000203166002900480601f0160208091040260200160405190810160405280929190818152602001828054600181600116156101000203166002900480156103a95780601f1061037e576101008083540402835291602001916103a9565b820191906000526020600020905b81548152906001019060200180831161038c57829003601f168201915b5050505050905082565b60025481565b600560009054906101000a900473ffffffffffffffffffffffffffffffffffffffff168156fea265627a7a72315820b67fb712098a4f37ac5ced38f4583d4862ef0f429b56d03cb50eb744eec8d68b64736f6c63430005100032",
  "source": "// variable\n// data types\n// custom data structures\n\npragma solidity >=0.4.21 <=0.7.0;\n\ncontract MyContractVariables {\n    // State Variables\n    // uint vs int - sign (uint is only positive)\n    uint256 public testState = 1;\n    uint8 myuint8 = 1;\n    int256 public myint = 1;\n    string public myString = \"HELLO\";\n    bytes32 public myBytes32 = \"Hello\";\n    address public myaddr = 0x2E7f715C21440e72013df858C7E3CE3ccC69C64B;\n\n    // Own Data structures\n    struct MyStruct {\n        uint256 myInt;\n        string myString;\n    }\n\n    MyStruct public myStruct = MyStruct(1, \"HelloWorld\");\n\n    // Local Variables - reused inside of a function\n    // Pure functions ensure that they not read or modify the state\n    function getValue() public pure returns (uint256) {\n        uint256 value = 1;\n        return value;\n    }\n}\n",
  "sourcePath": "/Users/anilrajthota/Documents/GitHub/Learn-Solidity/contracts/MyContractVariables.sol",
  "compiler": {
    "name": "solc",
    "version": "0.5.16+commit.9c3226ce.Emscripten.clang"
  },
  "schemaVersion": "3.4.4",
  "updatedAt": "2022-02-05T16:14:25.992Z",
  "networkType": "ethereum",
  "devdoc": {
    "methods": {}
  },
  "userdoc": {
    "methods": {}
  }
}